:020000040800F2
:1000000000C00120E14900082549000827490008EF
:10001000294900082B4900082D490008000000006C
:100020000000000000000000000000002F49000850
:100030003149000800000000334900083549000834
:10004000314A0008314A0008314A0008314A0008A4
:10005000314A0008314A0008314A0008314A000894
:10006000314A0008314A0008314A0008314A000884
:10007000314A0008314A0008314A0008314A000874
:10008000314A0008314A0008314A0008314A000864
:10009000314A0008314A0008314A0008314A000854
:1000A000314A0008314A0008314A0008314A000844
:1000B000314A0008314A0008314A0008314A000834
:1000C000314A0008314A0008314A0008314A000824
:1000D000314A0008314A0008314A0008314A000814
:1000E000314A0008314A0008314A0008314A000804
:1000F000314A0008314A0008314A0008314A0008F4
:10010000314A0008314A0008314A0008314A0008E3
:10011000314A0008314A0008314A0008314A0008D3
:10012000314A0008314A0008314A0008314A0008C3
:10013000314A0008314A0008314A0008314A0008B3
:10014000314A0008314A0008314A0008314A0008A3
:10015000314A0008314A0008314A0008314A000893
:10016000314A0008314A0008314A0008314A000883
:10017000314A0008314A0008314A000800000000F6
:08018000314A0008314A000871
:1001900010B5054C237833B9044B13B10448AFF3C1
:1001A00000800123237010BDC00E0020000000005D
:1001B0009CEC000808B5034B1BB103490348AFF39F
:1001C000008008BD00000000C40E00209CEC000868
:1001D00081F0004102E000BF83F0004330B54FEAF8
:1001E00041044FEA430594EA050F08BF90EA020F65
:1001F0001FBF54EA000C55EA020C7FEA645C7FEAF8
:10020000655C00F0E2804FEA5454D4EB5555B8BF1A
:100210006D420CDD2C4480EA020281EA030382EA8B
:10022000000083EA010180EA020281EA0303362D1D
:1002300088BF30BD11F0004F4FEA01314FF4801CF0
:100240004CEA113102D0404261EB410113F0004F02
:100250004FEA03334CEA133302D0524263EB4303B9
:1002600094EA050F00F0A780A4F10104D5F1200E57
:100270000DDB02FA0EFC22FA05F2801841F10001B2
:1002800003FA0EF2801843FA05F359410EE0A5F186
:1002900020050EF1200E012A03FA0EFC28BF4CF0B7
:1002A000020C43FA05F3C01851EBE37101F000456D
:1002B00007D54FF0000EDCF1000C7EEB00006EEB7A
:1002C0000101B1F5801F1BD3B1F5001F0CD3490804
:1002D0005FEA30004FEA3C0C04F101044FEA44525B
:1002E00012F5800F80F09A80BCF1004F08BF5FEAE2
:1002F000500C50F1000041EB045141EA050130BDC2
:100300005FEA4C0C404141EB0101013C28BFB1F5D3
:10031000801FE9D291F0000F04BF01460020B1FA1E
:1003200081F308BF2033A3F10B03B3F120020CDAF1
:100330000C3208DD02F1140CC2F10C0201FA0CF0CF
:1003400021FA02F10CE002F11402D8BFC2F1200C34
:1003500001FA02F120FA0CFCDCBF41EA0C019040EA
:10036000E41AA2BF01EB0451294330BD6FEA040433
:100370001F3C1CDA0C340EDC04F11404C4F120021E
:1003800020FA04F001FA02F340EA030021FA04F330
:1003900045EA030130BDC4F10C04C4F1200220FA87
:1003A00002F001FA04F340EA0300294630BD21FAC5
:1003B00004F0294630BD94F0000F83F4801306BF8B
:1003C00081F480110134013D4EE77FEA645C18BF7F
:1003D0007FEA655C29D094EA050F08BF90EA020F16
:1003E00005D054EA000C04BF1946104630BD91EA0E
:1003F000030F1EBF0021002030BD5FEA545C05D111
:100400004000494128BF41F0004130BD14F580044F
:100410003CBF01F5801130BD01F0004545F0FE41C3
:1004200041F470014FF0000030BD7FEA645C1ABFF8
:10043000194610467FEA655C1CBF0B46024650EA2F
:10044000013406BF52EA033591EA030F41F400215B
:1004500030BD00BF90F0000F04BF0021704730B5E1
:100460004FF4806404F132044FF000054FF00001B6
:1004700050E700BF90F0000F04BF0021704730B577
:100480004FF4806404F1320410F0004548BF40424C
:100490004FF000013EE700BF42004FEAE2014FEAA1
:1004A00031014FEA02701FBF12F07F4393F07F4F7C
:1004B00081F06051704732F07F4208BF704793F07F
:1004C0007F4F04BF41F40021704730B54FF4607492
:1004D00001F0004521F000411CE700BF50EA010295
:1004E00008BF704730B54FF000050AE050EA01023E
:1004F00008BF704730B511F0004502D5404261EBAE
:1005000041014FF4806404F132045FEA915C3FF4EE
:10051000D8AE4FF003025FEADC0C18BF03325FEA8B
:10052000DC0C18BF033202EBDC02C2F1200300FA3C
:1005300003FC20FA02F001FA03FE40EA0E0021FA61
:1005400002F11444BDE600BF70B54FF0FF0C4CF44F
:10055000E06C1CEA11541DBF1CEA135594EA0C0F01
:1005600095EA0C0F00F0DEF82C4481EA030621EA3C
:100570004C5123EA4C5350EA013518BF52EA033577
:1005800041F4801143F4801338D0A0FB02CE4FF029
:100590000005E1FB02E506F00042E0FB03E54FF059
:1005A0000006E1FB03569CF0000F18BF4EF0010E51
:1005B000A4F1FF04B6F5007F64F5407404D25FEA4D
:1005C0004E0E6D4146EB060642EAC62141EA555100
:1005D0004FEAC52040EA5E504FEACE2EB4F1FD0C42
:1005E00088BFBCF5E06F1ED8BEF1004F08BF5FEAC0
:1005F000500E50F1000041EB045170BD06F0004672
:1006000046EA010140EA020081EA0301B4EB5C041E
:10061000C2BFD4EB0C0541EA045170BD41F4801116
:100620004FF0000E013C00F3AB8014F1360FDEBF3B
:10063000002001F0004170BDC4F10004203C35DA17
:100640000C341BDC04F11404C4F1200500FA05F39A
:1006500020FA04F001FA05F240EA020001F000423B
:1006600021F0004110EBD37021FA04F642EB0601B1
:100670005EEA430E08BF20EAD37070BDC4F10C04DB
:10068000C4F1200500FA04F320FA05F001FA04F29F
:1006900040EA020001F0004110EBD37041F100018B
:1006A0005EEA430E08BF20EAD37070BDC4F1200596
:1006B00000FA05F24EEA020E20FA04F301FA05F2FE
:1006C00043EA020321FA04F001F0004121FA04F2A6
:1006D00020EA020000EBD3705EEA430E08BF20EA76
:1006E000D37070BD94F0000F0FD101F000464000B0
:1006F00041EB010111F4801F08BF013CF7D041EA32
:10070000060195F0000F18BF704703F00046520035
:1007100043EB030313F4801F08BF013DF7D043EA06
:100720000603704794EA0C0F0CEA135518BF95EABC
:100730000C0F0CD050EA410618BF52EA4306D1D143
:1007400081EA030101F000414FF0000070BD50EA62
:10075000410606BF1046194652EA430619D094EAEC
:100760000C0F02D150EA013613D195EA0C0F05D1D6
:1007700052EA03361CBF104619460AD181EA03012A
:1007800001F0004141F0FE4141F470014FF00000E2
:1007900070BD41F0FE4141F4780170BD70B54FF07D
:1007A000FF0C4CF4E06C1CEA11541DBF1CEA1355FD
:1007B00094EA0C0F95EA0C0F00F0A7F8A4EB0504DF
:1007C00081EA030E52EA03354FEA013100F08880D6
:1007D0004FEA03334FF0805545EA131343EA12639F
:1007E0004FEA022245EA111545EA10654FEA002654
:1007F0000EF000419D4208BF964244F1FD0404F50D
:10080000407402D25B084FEA3202B61A65EB030568
:100810005B084FEA32024FF480104FF4002CB6EB25
:10082000020E75EB030E22BFB61A754640EA0C00A5
:100830005B084FEA3202B6EB020E75EB030E22BFE5
:10084000B61A754640EA5C005B084FEA3202B6EB26
:10085000020E75EB030E22BFB61A754640EA9C00E5
:100860005B084FEA3202B6EB020E75EB030E22BFB5
:10087000B61A754640EADC0055EA060E18D04FEA73
:10088000051545EA16754FEA06164FEAC30343EA13
:1008900052734FEAC2025FEA1C1CC0D111F4801FE0
:1008A0000BD141EA00014FF000004FF0004CB6E7D9
:1008B00011F4801F04BF01430020B4F1FD0C88BF78
:1008C000BCF5E06F3FF6AFAEB5EB030C04BFB6EB83
:1008D000020C5FEA500C50F1000041EB045170BD76
:1008E0000EF0004E4EEA113114EB5C04C2BFD4EBA3
:1008F0000C0541EA045170BD41F480114FF0000E27
:10090000013C90E645EA060E8DE60CEA135594EAA2
:100910000C0F08BF95EA0C0F3FF43BAF94EA0C0FA5
:100920000AD150EA01347FF434AF95EA0C0F7FF41A
:1009300025AF104619462CE795EA0C0F06D152EA6E
:1009400003353FF4FDAE1046194622E750EA410652
:1009500018BF52EA43067FF4C5AE50EA41047FF463
:100960000DAF52EA43057FF4EBAE12E74FF0FF3CC8
:1009700006E000BF4FF0010C02E000BF4FF0010C99
:100980004DF804CD4FEA410C7FEA6C5C4FEA430C12
:1009900018BF7FEA6C5C1BD001B050EA410C0CBF61
:1009A00052EA430C91EA030F02BF90EA020F0020C3
:1009B000704710F1000F91EA030F58BF994208BF2A
:1009C00090422CBFD8176FEAE37040F001007047E7
:1009D0004FEA410C7FEA6C5C02D150EA013C07D13E
:1009E0004FEA430C7FEA6C5CD6D152EA033CD3D089
:1009F0005DF8040B704700BF8446104662468C4683
:100A00001946634600E000BF01B5FFF7B7FF0028B5
:100A100048BF10F1000F01BD4DF808EDFFF7F4FFDE
:100A20000CBF012000205DF808FB00BF4DF808ED69
:100A3000FFF7EAFF34BF012000205DF808FB00BF8C
:100A40004DF808EDFFF7E0FF94BF012000205DF8AE
:100A500008FB00BF4DF808EDFFF7CEFF94BF012063
:100A600000205DF808FB00BF4DF808EDFFF7C4FF5C
:100A700034BF012000205DF808FB00BF80F000407B
:100A800002E000BF81F0004142001FBF5FEA410366
:100A900092EA030F7FEA226C7FEA236C6AD04FEA66
:100AA0001262D2EB1363C1BFD218414048404140AB
:100AB000B8BF5B42192B88BF704710F0004F40F45D
:100AC000000020F07F4018BF404211F0004F41F479
:100AD000000121F07F4118BF494292EA030F3FD045
:100AE000A2F1010241FA03FC10EB0C00C3F1200358
:100AF00001FA03F100F0004302D5494260EB4000E7
:100B0000B0F5000F13D3B0F1807F06D340084FEA51
:100B1000310102F10102FE2A51D2B1F1004F40EB46
:100B2000C25008BF20F0010040EA030070474900AE
:100B300040EB0000013A28BFB0F5000FEDD2B0FA4B
:100B400080FCACF1080CB2EB0C0200FA0CF0AABF6E
:100B500000EBC25052421843BCBFD040184370470C
:100B600092F0000F81F4000106BF80F40000013212
:100B7000013BB5E74FEA41037FEA226C18BF7FEAE9
:100B8000236C21D092EA030F04D092F0000F08BF2B
:100B90000846704790EA010F1CBF0020704712F012
:100BA0007F4F04D1400028BF40F00040704712F151
:100BB00000723CBF00F50000704700F0004343F0B6
:100BC000FE4040F4000070477FEA226216BF0846EC
:100BD0007FEA23630146420206BF5FEA412390EAAF
:100BE000010F40F4800070474FF0000304E000BFA5
:100BF00010F0004348BF40425FEA000C08BF704756
:100C000043F0964301464FF000001CE050EA010219
:100C100008BF70474FF000030AE000BF50EA01022E
:100C200008BF704711F0004302D5404261EB41011B
:100C30005FEA010C02BF84460146002043F0B64340
:100C400008BFA3F18053A3F50003BCFA8CF2083A65
:100C5000A3EBC25310DB01FA02FC634400FA02FC6E
:100C6000C2F12002BCF1004F20FA02F243EB020075
:100C700008BF20F00100704702F1200201FA02FCD7
:100C8000C2F1200250EA4C0021FA02F243EB0200CA
:100C900008BF20EADC70704753B94AB9002908BF81
:100CA00000281CBF4FF0FF314FF0FF3000F0C2B9F9
:100CB000ADF1080C6DE904CE00F058F8DDF804E061
:100CC000DDE9022304B0704707EE900AF5EEC07A22
:100CD000F1EE10FA01D400F00BB8F1EE677A08B526
:100CE00017EE900A00F004F8404261EB410108BDA4
:100CF000D0B5FFF7D1FB0C4B002206460F46FFF79D
:100D000023FC00F099F90446FFF7A4FB074B0022EF
:100D1000FFF71AFC02460B4630463946FFF75CFAED
:100D200000F08AF92146D0BD0000F03D0000F041FE
:100D3000D0B50C4B002206460F46FFF705FC00F02D
:100D40007BF90446FFF786FB074B0022FFF7FCFB0D
:100D500002460B4630463946FFF73EFA00F06CF982
:100D60002146D0BD0000F03D0000F0412DE9F047E4
:100D7000089E0D4604460F46002B4AD18A429446EF
:100D800065D9B2FA82F343B102FA03FCC3F120023F
:100D90009F4020FA02F217439C404FEA1C4E1FFA74
:100DA0008CF5B7FBFEF1220C0EFB117742EA0742ED
:100DB00001FB05F090420AD91CEB020201F1FF375A
:100DC00080F01C81904240F2198102396244121A6B
:100DD000A4B2B2FBFEF00EFB102244EA024400FB78
:100DE00005F5A5420AD91CEB040400F1FF3280F09E
:100DF0000781A54240F204816444023840EA014080
:100E0000641B00211EB1DC400023C6E90043BDE89D
:100E1000F0878B4208D9002E00F0ED800021C6E952
:100E200000050846BDE8F087B3FA83F1002949D1EF
:100E3000AB4202D3824200F2F880841A65EB0302CF
:100E400001201746002EE2D0C6E90047DFE702B9CD
:100E5000FFDEB2FA82F3002B40F090808A1A4FEA4C
:100E60001C471FFA8CFE0121B2FBF7F507FB15208A
:100E7000220C42EA00420EFB05F0904208D91CEB1E
:100E8000020205F1FF3802D2904200F2CB804546C3
:100E9000121AA4B2B2FBF7F007FB102244EA024494
:100EA0000EFB00FEA64508D91CEB040400F1FF323E
:100EB00002D2A64500F2BB801046A4EB0E0440EA25
:100EC00005409FE7C1F120078B4022FA07FC4CEA5E
:100ED000030C05FA01F420FA07F3FD404FEA1C4920
:100EE0002343B5FBF9F81FFA8CFE09FB18551C0CBF
:100EF00044EA054408FB0EF5A54202FA01F200FAA5
:100F000001F00BD91CEB040408F1FF3A80F0888053
:100F1000A54240F28580A8F102086444641B9DB29A
:100F2000B4FBF9F309FB134445EA044403FB0EFE4A
:100F3000A64508D91CEB040403F1FF356CD2A64585
:100F40006AD9023B644443EA0843A3FB0295A4EB3D
:100F50000E04AC42C846AE4656D353D056B1B0EBA1
:100F6000080264EB0E0404FA07F7CA40CC401743AA
:100F7000C6E9007418460021BDE8F087C3F12001DE
:100F800002FA03FC20FA01F225FA01F19D402A43FE
:100F90004FEA1C471FFA8CFEB1FBF7F007FB101558
:100FA000110C41EA054100FB0EF58D4204FA03F4F1
:100FB00008D91CEB010100F1FF382FD28D422DD949
:100FC00002386144491B92B2B1FBF7F507FB1511DA
:100FD00042EA014205FB0EF1914208D91CEB0202E4
:100FE00005F1FF3816D2914214D9023D6244521ADB
:100FF00045EA004138E73146304608E73946E6E63B
:101000001046FBE64845A9D2B9EB020865EB0C0E89
:10101000013BA3E74546EAE72B4694E74046D1E784
:10102000D0467BE7023D624432E708460AE7644463
:10103000023842E7704700BF4A0011D212F5001291
:1010400011D20DD56FF47873B3EB62520ED44FEA20
:10105000C12343F0004343EA505323FA02F07047A0
:101060004FF00000704750EA013002D14FF0FF30DE
:1010700070474FF0000070470000000000000000C3
:1010800001F0FF01102A2BDB10F0070F08D010F839
:10109000013B013A8B422DD010F0070F42B3F6D13D
:1010A000F0B441EA012141EA014122F007047FF056
:1010B00000070023F0E80256083C85EA010586EAAD
:1010C000010685FA47F5A3FA87F586FA47F6A5FAE9
:1010D00087F68EB9EED1F0BC01F0FF0102F00702F5
:1010E00032B110F8013B013A83EA010313B1F8D1A0
:1010F0000020704701387047002D06BF3546033881
:10110000073815F0010F07D1013015F4807F02BFB9
:10111000013015F4C03F0130F0BC0138704700BF0A
:10112000034613F8012B002AFBD1181A0138704727
:101130004FEA410C7FEA6C5C02D150EA013C0AD1D3
:101140004FEA430C7FEA6C5C02D152EA033C02D1C5
:101150004FF0000070474FF0010070474FEA410226
:1011600012F5001215D211D56FF47873B3EB6252F9
:1011700012D94FEAC12343F0004343EA505311F020
:10118000004F23FA02F018BF404270474FF00000B2
:10119000704750EA013005D111F0004008BF6FF0F0
:1011A000004070474FF00000704700BF82B000233E
:1011B0000193064B1A6B42F480521A631B6B03F4C3
:1011C00080530193019B02B0704700BF003802407A
:1011D000074AD2F8FC3043F08073C2F8FC30054B6C
:1011E00000225A601A6842F001021A60704700BF7C
:1011F00000ED00E0001000E0F8B50E4D0E4614467C
:10120000012000273CB90BE0EA1816F8011B5170C9
:101210000133013C2B702B781F2B02D8002CF3D10B
:10122000F8BD202BEED12121284600F085FC2F703F
:10123000E8E700BF040F00202DE9F7430C461546F0
:101240005AB3204E204F3378FF2B08D0DFF874803C
:101250004FF000093B680022F0181B1B13E021210E
:10126000304600F077FC00233B600028EED103B04D
:10127000BDE8F08310F8012F04F8012B3278013A11
:101280003270013D012296F800C0E118BCF1000F58
:1012900005D0002DEED102B139600120E7E702B19F
:1012A0003960002DF9D0AA2301210DF107008DF836
:1012B000073000F041FC2121404600F04BFCC7F80C
:1012C0000090C7E7DC0E0020000F002010B5064C90
:1012D0002378212163F07F032046237000F02CFC4B
:1012E0000023237010BD00BF040F0020034BFF221A
:1012F0001A70034B00221A60704700BFDC0E0020FA
:10130000000F002010B50022C0E90322034AC0E903
:1013100000214FF0FF32826010BD00BFF9110008BC
:101320000022C260034AC0E900214FF0FF32826010
:10133000704700BF3912000808B500F019FC002002
:1013400008BD2DE9F843D2F80080D8F808400026FF
:10135000002C0746894608BF04243546D8F80030DB
:101360009D4201D3012005E04946384602F08EFF38
:1013700010B90020BDE8F883D8F80430022C14BF5F
:101380009A5933F815203846D31702F0B7FE264491
:101390000028EED00135E1E770B515680446AE6867
:1013A00002F074FF30B16A6831462046BDE87040F3
:1013B00003F0C6B870BDF7B51468D4E901670546F7
:1013C0000023E360AB6813B9012003B0F0BD012234
:1013D0006946284602F058F90028F6D03FB1002EA1
:1013E000C2BF9DF8003007F8013B06F1FF36E36805
:1013F0000133E6E7F0B51B4C8BB04FF4D0720021FF
:1014000006AD074620460BF0A5F9FFF795FF2846E5
:101410000021FFF785FF95E80F006D4684E80F0077
:1014200000216846FFF76EFF0FCD04F110060FC6CE
:101430002B6833600023C4E909337FB9012384F8A2
:1014400098310BB0F0BD0C322B46012150685D1C69
:101450000028F8D101B1A3626762EFE73A46194666
:10146000F4E700BF280F00207FB51646104A054656
:101470000C4610685168128901AB03C328461A80D4
:10148000FFF74EFEB04288BF06F1FF3074B138B1AD
:10149000421C2946204604B0BDE870400BF0A3B9B9
:1014A00001AB03CB1B8820606160238104B070BD59
:1014B00058F400082DE9F0471668DFF85890DFF877
:1014C00058A09CB00546884600247368A34201D802
:1014D00001201CE06422002103A80BF03BF9B16855
:1014E000376820466B4603AAB84741462846CDF8E0
:1014F0005890CDF85CD002F0C9FE38B103AA51462D
:10150000284603F06DF808B10134DEE700201CB076
:10151000BDE8F08743130008F004010808B503682C
:101520000B600A7104480A46044902F0D5FFBDE881
:101530000840FFF7CBBE00BF380F0020550601085A
:1015400070B51D4CFFF7D2FE1C4904F12C02204659
:1015500002F0DEFC48B3FFF7C9FE022384F898319D
:10156000A16A94F83000636A0025A9420DD01A469A
:1015700013F80C6B86421CD11149D2E90132A1F15A
:1015800054009847A36AAB420CD10D4904220C23A6
:10159000A1F15400A4F88630C4F8882084F88C2087
:1015A000FFF7BCFF012384F89831FFF79FFE00206E
:1015B00070BD0135D9E700BF280F0020FB050108E9
:1015C000A80F002070B40C269DF80C50CE800D732F
:1015D0008B6070BCFFF7A2BF1FB500230749084806
:1015E000029302AA8DF80C3002F092FC0190FFF7F2
:1015F0007DFE019805B05DF804FB00BF0003010803
:10160000280F00207FB5194C0E46114694F89821FA
:101610000023022A054602938DF80C3023D1084698
:101620000191FFF77DFD7F2828BF7F200D23421CFD
:101630000199A4F8863004F18C00C4F888600BF09E
:10164000D2F804F1800104F12C002A46FFF766FF6E
:101650002046074902AA02F05BFC0446FFF746FE5B
:10166000204604B070BD1C46FAE700BF280F0020DA
:101670000003010810B5094B094986B0CDE90430D3
:10168000044601AA074802F043FCFFF72FFE019B26
:101690002360039BA360012006B010BDB7130008B0
:1016A00034030108280F0020F0B585B0174610223A
:1016B00006460C9DCA800C461846FBB140220831F4
:1016C000FFF7D2FE0A9BA3640B9BE364D5B12B68A2
:1016D00023656B686365EB6893B1AA68CDE9012364
:1016E000042303930A4BA36501ABE36530463A46F6
:1016F0002146FFF713FF012005B0F0BD0B72E1E7B3
:10170000A365F3E70023C4E915552365EEE700BFA1
:101710004313000810B40A24CC804FF440748C604A
:1017200094B2120C42F48072CC600A615DF8044BF2
:101730000022FFF7F3BE00007FB504F08FF9C0F37D
:10174000074302930122C0F30723C0B20193009024
:1017500000230348114600F031FA07B05DF804FB9E
:10176000C0EC000810B4C0F31723C4B229B122465C
:1017700005485DF8044B00F021BA214603485DF8A6
:10178000044B1A4600F01ABAF2EC00081FED0008EC
:101790002DE9F74F816907680546D1E902326B48A8
:1017A000096800F00BFA6A69A86922F0FF02B2F535
:1017B000A06F19D142680169654800F0FFF9012165
:1017C000284603F063FFC7F343460146614800F033
:1017D000F5F9012E4FEAE719C7F3C61413D15E4895
:1017E000214600F0EBF946E0B2F5C06F436805D141
:1017F000D0E90412594800F0E1F9E0E758481946E9
:1018000000F0DCF9DBE7032E02D156482146E8E779
:10181000DFF8688117F4000F08F10201224618BFB3
:10182000414608F13B0000F0C9F9022E23D1AB6814
:10183000002B69D01A68D20766D55B68002B63D08D
:10184000B3F802A008F14000BAF1040F5146D346A4
:1018500028BF4FF0040B00F0B1F900264FF000094B
:1018600008F145085E4518DB3F4BD81CD34538BF0F
:10187000184600F0A3F96C6801212846002C54D0CA
:1018800003F004FF394603F035FF0246374821468E
:1018900003B0BDE8F04F00F091B9AB68002B2ED03B
:1018A0001C6814F001042DD05A68002A49D05368EE
:1018B000002B49D05188B14246DD1B6803EB8603FB
:1018C0001868002A3ED01488536814F002040FD020
:1018D000B3B15288B24235DD5B689C5DFEF7DCFD3A
:1018E000009402460B46404600F068F90136B9E71D
:1018F00033B15288B242F1DD5B689C57EEE748464F
:101900001C46EBE74846E9E719F0780F02D1184882
:10191000214666E707F07F02403AC7F3C051114401
:101920001448611A00F04AF9A5E703F0AFFE394602
:1019300003F0E0FE0146104803B0BDE8F04F00F0B0
:101940003DB948460024C9E74846BAE74FED0008CC
:101950005AED00086FED000873ED000861ED000816
:101960006BED00087BED00084BED0008A8ED0008CA
:1019700095ED0008A0ED0008B2ED000847ED000865
:101980002DE9F84304464B4800F018F921684A480D
:1019900000F014F96168494800F010F9A16848485E
:1019A00000F00CF9E168474800F008F9A1690B78EC
:1019B00013B1454800F002F9217FA37F627F4348BD
:1019C000434F00F0FBF8D4E90C23424800F0F6F84E
:1019D000E16F414800F0F2F8B4F852103F4800F0CF
:1019E000EDF800254FF01C0807F10809B4F8523053
:1019F000AB4225DCB4F84A103948354F00F0DEF828
:101A000000254FF01C0807F10809B4F84A30AB4232
:101A100025DC628F218F3348334E00F0CFF800254C
:101A20001C27A6F13C08238FAB4227DC2F4E002554
:101A30001C27A6F14508638FAB422DDCBDE8F88377
:101A4000606D294608FB0506384600F0B7F83046B9
:101A5000FFF79EFE484600F0B1F80135C6E7E06C9E
:101A6000294608FB0506384600F0A8F83046FFF77F
:101A70008FFE484600F0A2F80135C6E729463046F9
:101A800000F09CF8E06B07FB0500FFF781FE404685
:101A900000F094F80135C6E72946304600F08EF88C
:101AA000206C07FB0500FFF773FE404600F086F848
:101AB0000135C0E7C4ED0008DEED0008F9ED0008CF
:101AC00014EE00082FEE00084AEE000865EE00084C
:101AD000DEEE000886EE0008A8EE0008C3EE00085F
:101AE000E9EE000804EF000822EF00082BEF0008E1
:101AF000D0E90132013B9A4207D2036899548368C6
:101B00000268013300218360D154704707B5084B48
:101B10008DF807101B783BB106484FF0FF330122C8
:101B20000DF1070103F055FC03B05DF804FB00BFA5
:101B3000000000203433012008B58AB24FF0FF3393
:101B40000146034803F045FCB0FA80F0400908BDA7
:101B50003433012008B58AB24FF0FF330146034801
:101B600003F085FCB0FA80F0400908BD3433012051
:101B7000014B00221A7070470000002010B5141E9F
:101B80000ADA0138012807D90AF000FE09230360A8
:101B90004FF0FF34204610BD064B1B78002BF9D0C8
:101BA000A2B205484FF0FF3303F013FC002818BF22
:101BB0000024EFE700000020343301200FB407B504
:101BC00004AB002153F8042B0448019301F040F8C2
:101BD00003B05DF804EB04B0704700BF0D1B0008B4
:101BE0001FB5CDE9010100210391044801A901F0CD
:101BF0002FF80398013805B05DF804FBF11A0008CE
:101C000038B5114D03302B6820F0030443F0020374
:101C100004F108002B600AF085FAA0B103190B4A01
:101C200004605A602B68DB070CD5EB680133EB606E
:101C30006B6823446B60AB691C446B69AC619C426C
:101C400088BF6C61043038BDD410002098BADCEF36
:101C50002DE9F74F04468A46174682B303F0A6FAE9
:101C600000230246019051462046FFF715F84FF435
:101C70007A768346A4FB0601019ADFF84890002398
:101C800006FB0A11FFF708F8ABFB0631C51AA4FBE7
:101C90000901019A09FB0A110023FEF7FDFF019AD1
:101CA000BD60ABFB0989A0EB0800A5FB0656C7E9A0
:101CB000002B401BF860002003B0BDE8F08F4FF010
:101CC000FF30F9E740420F0010B52DED028B82B0D6
:101CD0000446019103F06AFA019908EE100A2046C1
:101CE000FEF794FFDFED067A07EE100AB8EE488A99
:101CF00027EE270A80EE080A02B0BDEC028B10BD69
:101D000000007A440D4B82B01B6801930198019B3F
:101D1000D905019B00F007004CBF40F0012040F0C6
:101D200080709A05019B48BF40F400705B0548BF76
:101D300040F4806040F4803002B07047003C0240C4
:101D400010B5044603F032FA206003F02FFA606009
:101D5000FFF7D8FFA06003F04DFCE06003F044FC07
:101D6000206110BD08B1FFF7EBBF704730B503220B
:101D700089B001230B212648264CFFF71FFF03A83B
:101D8000FFF7DEFF2448FFF719FF06992348A1F269
:101D900013439BB2502B96BF214A224A52F823206C
:101DA000079BFFF70BFF204B04215A1D03F10A008C
:101DB000FFF704FF03F014FC01461C48FFF7FEFE8A
:101DC00003991B4891FBF4F1FFF7F8FE04991948B9
:101DD00091FBF4F1FFF7F2FE174B18481968441D08
:101DE00011F4807F14BF0246224611F4007F14BF15
:101DF0000346234611F4806F18BF044601F007051F
:101E0000CDE90045EC30FFF7D9FE09B030BD00BF89
:101E1000ADEF000840420F00CAEF0008EAEF0008EB
:101E200064F400089AEF00081BF0000843F0000873
:101E30005CF0000875F00008003C0240A2EF0008CA
:101E400030B587B00C46054601A8FFF78BFF0B2382
:101E5000E380049BA360019BE360029B2361039BDF
:101E60006361002221462846FFF758FB07B030BDCA
:101E700070B51E460123336008680B1D7360042390
:101E80000D461446B360A0B140222146FFF7ECFA9C
:101E9000094B23646B686364336843F08073A36405
:101EA000002363650023A365AB68E365082323660D
:101EB00070BD1070ECE700BF40040400F8B50C469C
:101EC00041698669C1F3172104272DED028B11604A
:101ED000566097600022227002682366037D2264A8
:101EE00041EA0361A164012136680546B0EE408AEB
:101EF00003F0CCFBAB68089A84ED158A70436064EC
:101F0000A265A3B11A68D00711D55B687BB15A6886
:101F100092B1598881B1116809686165198889078A
:101F20000CD59AB15B880BB153681B78A365BDECE7
:101F3000028B6B68E365F8BD0021EEE732B15B8888
:101F4000002BF3D0536893F90030EFE71346EDE729
:101F500037B50C4611461A46E3682568009394EDA0
:101F6000020A63681C2404FB0050FFF7A7FF03B0BC
:101F700030BD38B5836901211D68044603F086FB36
:101F800021686843BDE8384003F0B4BB08B503F0EE
:101F90000DFB044B044A98600021516052685A605E
:101FA00008BD00BFC8100020001000E037B5104B7E
:101FB000104D5C686B68E41A0023019303F0F6FA95
:101FC000AA68019B801A2A6890420CD91946FEF72C
:101FD00063FE4FF0FF33A0FB03030019A3EB0103E3
:101FE000044643F100032046194603B030BD00BF4C
:101FF000001000E0C8100020F8B50446007830B9A1
:1020000021B9104B1868002818BF1846F8BD0D4EAE
:1020100030680028FAD0B7683846FFF781F80546DF
:102020002046FFF77DF8854209D12A4621463846E9
:102030000AF07EFB00280CBF30460020E6E70020B7
:10204000E4E700BF401100202DE9F0438BB01D46AE
:10205000DDF848801123CB800DF10C09139B009310
:102060000C4643460646174608314A462846FFF7BF
:1020700025FF104B18F4007FC4E915396B686367BE
:1020800015D12846FFF775FF636F20670022CDE961
:102090000832094BA36706ABCDE90620E3673A4651
:1020A00021463046FFF73AFA0BB0BDE8F083002036
:1020B000EAE700BF43130008991300082DE9F04335
:1020C0002DED028B93B00D46D0F894401746FFF7E4
:1020D0006DFF15F00206CDE9040111D06368EA0531
:1020E00003F10103636003D5DDE90423C4E9082398
:1020F000FFF74CFF002013B0BDEC028BBDE8F0836E
:102100006B07F5D5FFF742FFDDE90401D4E908329A
:102110001B1842EB0102C4E90832A36815F4007FE2
:102120007D8803F10103A360DDE904010CBF4FF0DA
:1021300080734FF04073C5F30E051D43FFF7C4FDD8
:1021400004AB0A9307AB0293BB888DED070ACDE978
:10215000005302223346D4E9030109920896FFF79F
:10216000A3FAFB681A88012A0ED9D3F80480DFEDA0
:10217000398AB146B8F80C309E4205D2D8F81030F2
:1021800013B153F826704FB9FFF710FFD4E90632A8
:10219000181842EB0101C4E90601A9E73B68002BCE
:1021A00046D05A68002A43D05988002940D0126886
:1021B00092ED008AB869026812F400053BD0002B4A
:1021C00044D05968002943D05D8815B14B6893F914
:1021D0000050C3680B9201213846CDE90C39CDF887
:1021E000389003F027FA3B7A8DF84030BB68109A9C
:1021F0000F90C3F3172363F31F221092FB68119310
:10220000B8F80C30227D013B9E4214BF04234FF4EA
:1022100082730AB143F40073CDE90035B0EE480A89
:10222000D4E903010BAB0222FFF70EFF0136A1E751
:10223000B0EE688ABEE7002BCBD059680029C8D021
:102240005B88002BC5D04B681D78C2E71D46C0E7F0
:102250000D46BEE7000000002DE9F04106469CB0A7
:102260000C460C3050F8041CFFF7C6FE054600284B
:1022700000F0A980162390F8917090F89080806803
:10228000E380402204F10801FFF7EEF80123A36484
:10229000E868402204F14C01FFF7E6F86869402243
:1022A00004F18C01FFF7E0F8EB694B4802901BBA90
:1022B000C4F8CC306B6A05901BBAC4F8D030D5E9AD
:1022C0000E23B8F1000FC4E93623D5F884306A6CC8
:1022D000C4F8E03040F2014308BF0123CDE91423E4
:1022E000B5F8402003920023C4F8E4209F4202AADC
:1022F000AF6CC4F8EC2014A940F2024208BF0222DD
:10230000CDE918720491B5F8422034490692C4E927
:102310003C214FF0000C18A805AACDF858C017931F
:10232000C4F8E810CDF868C01B930790C4F8F820F3
:10233000B5F85A70002F42D0E86D1A4610304FF0B1
:102340001C0E0EFB02FC013250F80CC0BA42634472
:10235000F7DB234A234F0B9708A8CDE908230D90FC
:102360000122B5F852000C92C4E93F2100230BAAC8
:102370000A93C4F8042120B36D6D1A4610354FF04E
:102380001C0E0EFB02FC013255F80CC08242634465
:10239000F7DB154ACDE90E230123C4E942310EA82B
:1023A000129311AB00221390C4F81031214630462D
:1023B000CDE91027FFF7B2F81CB0BDE8F0813B462D
:1023C000C7E70346E5E7042300931A462146304653
:1023D000FFF7F8F8F0E700BF511F0008B514000838
:1023E00041F10008711E000846F100080EB417B54F
:1023F00078B10F4C059A06AB502120460193FFF7A8
:10240000EFFB0021231848B90121094A0846FFF7CC
:10241000F9F803B0BDE8104003B070471A780A2AF3
:1024200001D00D2A00D119700138013BEBE700BF44
:10243000F01000202DE9F04F2DED028B0546A1B0E4
:102440000E460C304FF0FF31FFF7D6FD044610B9B1
:102450000423009398E0AB689D4AC4F894205F077A
:102460004FF0010111754ABF1170C3F34001002103
:102470004FF000084FF000094FF0000754BF1170F3
:102480001175C2E90689C2E90889C2E90177C3F377
:102490004022C3F300200692C3F380228D4984F8C2
:1024A00092000592EA6CFFF7A1FFD4E911A3504610
:1024B0000793FFF75EFD0097034601223146284649
:1024C000FFF780F8D046B4F84090B9452BDCD4F83B
:1024D00094703B788BB1206878B10EA9C7E9035698
:1024E00012AA00F007FB7C4BC7E90A3406230E98BA
:1024F0003B6307F1280104F043FC784994F892000B
:10250000FFF774FFFFF742FD079A2068514600F07D
:10251000E0FA012873D0206800F0AFFA7049FFF7A5
:1025200021F90A2395E701374F4514BF0123022300
:1025300008EE103A404600231293FFF71AFDD8F830
:102540000430149300231593069B13900BB9059B3D
:1025500083B1D8F80010634A21F07E4323F40003CE
:1025600093421BD0012003F0C5F8059B13900BB1DB
:102570000EAB149312A8FFF77DF8159BDDF84C9075
:102580004B450DD001220092042231462846FFF728
:1025900019F821B0BDEC028BBDE8F08F0420E4E710
:1025A000069B6BB9002318EE102A00933146139B4B
:1025B0002846FFF707F808F11C08FFF70DF882E737
:1025C000059B002BEED1D8F804104FF0010B01EB66
:1025D00009034046CDE90813FFF7CBFCB0FBF9F047
:1025E0008345DDE90813DDD218464A4608910AF012
:1025F000FAF8034608994B440BF1010BE9E7FFF7A2
:10260000D5FCCDE90C01384994F892009FED378A4A
:10261000FFF7ECFED4F89430D3E90601D3E90823A0
:10262000801841EB03010C9BC0180D9B41EB03018B
:10263000CDE90C01FFF748FB0CAB002711930EAB63
:10264000CDE9017300970222A3688DED0E0A314691
:102650002846CDE90F72FFF727F8254994F8920034
:10266000FFF7C4FEDDF81C8040F20229B4F84220D6
:10267000BA420FDCD4F894502B78002B89D00BA9E8
:10268000206812AA00F036FA0B9805F1280104F030
:102690000DFC7EE7AB68013713F0080F0CBF022377
:1026A0004B46974208BF43F480734FF00001CDE9D9
:1026B000003108BF0322434618BF0222B0EE480A89
:1026C00031462846FFF7C0FC08F11C08CEE700BFE2
:1026D000D81100204DF10008BD20000878F1000855
:1026E0008AF10008C00004009AF100080000000010
:1026F000B1F100087FB5204C204E04F18B00FFF7AC
:102700005DFA002304F19101072204F19F00FFF715
:1027100055FA002504F1AC00FFF750FAFFF726FB4D
:10272000FEF744FDFEF754FD7560642002F044FF9F
:1027300070686A4664262946B0FBF6F0FFF788FA0F
:10274000DDE90113039A06FB013104F1B000FFF744
:1027500035FA6A4600214FF0FF30FFF779FA019A07
:10276000029B4FF47A7101FB0233054A1360FEF7B6
:102770002FFD284604B070BD41F10008001000E0B4
:10278000C81000202DE9F047664CDFF8D481DFF84F
:10279000D491FEF7D1FF0027634844F8087BFFF788
:1027A0000DFA4FF0FF353946002000F00BF90646D0
:1027B000B0B101464046FFF701FA5C483146FFF7E9
:1027C000FDF90022A4F10801304600F009F910F0EB
:1027D000FF0516D05649FEF7C5FF00264FF0FF351E
:1027E00001379834002EDED1002D77D0514829468C
:1027F000FFF7E4F94FF4FA6002F0DEFE2846BDE888
:10280000F0874D48FFF7DAF954F8080C214600F03C
:1028100029F9824654F8080CBAF1000F0ED100F0E5
:102820002CF94649FEF79EFF54F8080C00F002F917
:10283000564644F808AC6FF00105D1E700F02AF9DC
:10284000824680B954F8080C00F017F93C49FEF7AD
:1028500089FF54F8080C00F0EDF8564644F808AC2F
:102860006FF00305BCE754F8080C214600F0FAF8B5
:102870008246B0B12046FFF783F8DFF8ECC084F859
:10288000885084F889502B461C200125228F9342C2
:102890000ADB00231C200125628F934211DB0025F7
:1028A0009EE754F8080CBAE7E26B00FB032251687C
:1028B00021B95CF8231051600133E7E784F88850B0
:1028C000FAE7226C00FB0322516821B959F8231062
:1028D00051600133E0E784F88950FAE71948FFF7BF
:1028E0006DF91948FFF76AF91848FFF767F91648B4
:1028F000FFF764F91348FFF761F91548FFF75EF930
:102900001448FFF75BF914482A460321FFF756F9EC
:102910001248FEF76FFDFEF713FE05460028FAD0B9
:102920006CE700BF4011002027F200085EF20008AB
:102930007CF20008D0F200088FF20008AAF200082A
:10294000BFF20008E6F20008E9F2000817F30008F9
:1029500045F300088BF30008B9F3000804000020D9
:1029600047F200084800002044000020054B20B139
:1029700098420CBF1846002070471A68002A08BF0A
:10298000184670472012002010B5044660B1FEF7CB
:10299000C7FB0728024607D10448214609F0C8FEB4
:1029A000B0FA80F0400910BD0020FCE7A8F500084F
:1029B00008B501F033FFBDE80840FFF79BBEFFF705
:1029C000E1BE000010B50C46FFF7DEFF20B9002C79
:1029D000024818BF002010BD0048FCE7A8F5000819
:1029E00073B5064600200192FFF7C0FF0D4604466E
:1029F000E0B13046FFF7C8FF019910B91422102347
:102A00000DE0284600F0E0FBC2B2C0F3172352EA03
:102A1000032104D106492160296861602C600020EF
:102A200062F3070063F31F2002B070BD3122E6E7B6
:102A3000B0F5000838B50446FFF798FF054660B1C9
:102A4000036840689B6998476B68834205D0044BD4
:102A50009D424FF0000400D12C60204638BD00BFDD
:102A60002012002010B5FFF781FF28B102684068EE
:102A7000D268BDE81040104710BD10B5FFF776FFD3
:102A800028B1036840685B69BDE81040184741F20F
:102A9000140010BD30B58FB0FFF768FF044668B171
:102AA000036868469B6898470025BDF80E20236898
:102AB000AA4205DCDB696068694698470FB030BD03
:102AC0009B6A294653F8252003A802F025FE01350C
:102AD000EBE713B50192FFF749FF034640B10068E9
:102AE000019A046A5868234602B0BDE810401847AE
:102AF00002B010BD38B51546FFF738FF88B181B177
:102B00007DB143680B6000F108040FCC0FC50FCCFA
:102B10000FC50FCC0FC594E8030085E80300002023
:102B200038BD4FF0FF30FBE72DE9F04F966891B0CC
:102B3000002516F0040314468DF83F5028D0A94212
:102B400007DA1368404203F1FF3361EB4101136080
:102B50002D2516F0080F14BF4FF041084FF0610803
:102B60000DF13F093E2706F0100AA8F10A085FFAA6
:102B700080FBBAF1000F33D00BF00F030009092BD3
:102B800040EA01704FEA111106D94344DBB204E078
:102B90001D46DEE71746EAE7303309F8013D50EA03
:102BA000010307F1FF32C7F13F0BF3D106F001013A
:102BB00055B149B902F140030DEB03022D2302F890
:102BC000403CC7F1400BBA1E0029236814BF3021D6
:102BD000202106F002065B4513DD66B1A5B91CE0B5
:102BE0000A220023FEF758F80BF1300300EB8002B5
:102BF000A3EB4203CAE70DF802100BF1010B013AF7
:102C0000E9E755B15B4508D102F140036B442D2142
:102C100003F8401C0BF1010B013A0DEB02060025F5
:102C2000E36816F8011F206901359847AB45F7D1D5
:102C3000A3689B0708D4284611B0BDE8F08FE3686D
:102C400020692021984701352368AB42F7DCF2E781
:102C50002DE9F04F82469DB088461C464FF0000B90
:102C6000134613F8011B049319B958461DB0BDE86B
:102C7000F08F0A2904D14046D0470BF1010BFBE04D
:102C80002529F8D10023CDE90733CDE9093ACDF85C
:102C90002C801F4618461A4600931E469C469E46A8
:102CA000049911F8015B04912DB3392D14D82C2D02
:102CB0001ED9A5F12D010C2911D8DFE811F044002F
:102CC000FF01100030004700470047004700470061
:102CD00047004700470047006C2D00F00282782D26
:102CE00009D8622D3DD8462D00F00C81582D6BD0AF
:102CF000252D00F0888003B1099700B10892009B50
:102D000003B107963C214046D04721214046D04799
:102D10003E214046D04704340BF1030BACE056EAA9
:102D2000020505D147F001072A462E460123B7E7E1
:102D30000A21BEF1000F02D04A437046B0E74E436D
:102D400001210091ACE747F00207EFE7303D0A218F
:102D5000BEF1000F02D001FB0252EEE701FB065666
:102D6000EEE7633D152DC6D80FF2040E5EF825F090
:102D7000192E0008CD2E0008F72C0008052F00089A
:102D8000F72C0008F72C0008CD2E0008F72C0008BF
:102D9000F72C0008F72C0008F72C0008F72C000887
:102DA000F72C0008B72E0008F72C0008F72C0008B5
:102DB0002D2E0008F72C0008C3300008F72C00085F
:102DC000F72C0008E12D000803B1099700B1089223
:102DD000009B03B10796099B43F00803099306E0A3
:102DE00003B1099700B10892009B03B10796099BB4
:102DF00054F8040B43F0100307AA00210993FFF7CE
:102E000093FE834438E003B1099700B10892009B18
:102E100003B1079625212EE703B1099700B1089267
:102E2000009B03B1079614F8041B24E703B109972C
:102E300000B10892009B03B10796AB4B54F8049B7A
:102E4000B9F1000F08BF99464846FEF769F9089B9B
:102E5000064613B19842A8BF1E46099F17F0020705
:102E600015D000254A46A2EB09039E4211DC002E34
:102E7000A8BFAD19EFB9AB44049AF1E62021404652
:102E8000D0470135079AAB199A42F7DCEAE73D468D
:102E9000F8E712F8011B00924046D047009AE2E79B
:102EA00020214046D0470135079A73199A42F7DC32
:102EB000E1E7761BF8E703B1099700B10892099B97
:102EC00043F0010309930823079384E703B10997AB
:102ED00000B10892009B03B10796099B43F00403DD
:102EE00009932068251DC11707AAFFF71DFE2C4670
:102EF0008344C1E7073424F007042546616855F888
:102F0000080BF1E703B1099700B10892009B03B1E8
:102F10000796073424F00704B4EC027B089B8DED80
:102F2000007B0BB906230893089D704F4FF00009F2
:102F30000026A9454FF00002C0F2AC80DDE9000197
:102F40000023FDF773FD002800F0AE80009B029384
:102F5000019B03F10043039332463B466449002042
:102F6000FDF71CFCDDE90223FDF738F932463B464C
:102F7000FDF7EAFAFDF7DCFE002602463F27914600
:102F800000230A2248460591FDF786FE09F1300E1E
:102F900000EB80030246AEEB430007F170036B4485
:102FA00007F1FF3C03F8400C731C9D4201BF0CF17C
:102FB00070030DEB030C2E230CF8403C18BF1E468B
:102FC000059B06BF023F02366746B9F10A0F73F14F
:102FD0000009D4D2AE42C5F1010030444FF03001B7
:102FE00088BF0120A5EB06090DEB010388BF4FF058
:102FF0000009384418444A4609F0ACFB731BAE4242
:1030000088BF00234E44B5421F4405F1010507D196
:1030100007F170036B442E2203F8402C2E46013F2B
:10302000B54207D107F170036B44302203F8402CFE
:103030000136013FDDE9000100220023FDF7F6FC27
:1030400038B107F170036B442D2203F8402C013690
:10305000013F079DAE42C5F10100304488BF012009
:10306000A5EB06090CAB88BF4FF0000938444A466F
:103070001844202109F06EFB731BAE4288BF002369
:103080003B440CAA4E44D71833449D18BD4210D17E
:10309000B344F1E630463946164BFDF755FA09F1CF
:1030A000010906460F4644E79DED007B8DED027B4E
:1030B00052E717F8011F4046D047E7E74FF0010EEF
:1030C000EEE503B1099700B10892009B03B10796A2
:1030D000BCF1000F7FF40EAF2546614655F8040B96
:1030E00002E74FF0010CDBE5DCF500080000F03FE3
:1030F0000000E03F0000244030B5034685B070B1C9
:10310000084C94E803006A4682E80300D4E902010F
:1031100002AD85E803002946184602F045FC05B0DB
:1031200030BD00BF38F4000870B5A2B006460D46A9
:1031300002F078FD0446002D34D000282FD07822EC
:10314000002104A809F006FB174B0093174B0193CD
:10315000174B0293174B039302F048FC049002F0C4
:103160007DFC154B06934FF48473ADF81C3005902D
:1031700002F0C0FC099002F009FD104A0A900023F9
:10318000CDE90C2369460E4B1193304602F0FEFD4B
:10319000044620B188226946284609F024FB2046CF
:1031A00022B070BD2C46FAE7A8F5000828FE0008FA
:1031B00049FE000862FE00080A0B01084A480100A7
:1031C000DECAFAA102F06EBD07B505230022CDE9E3
:1031D0000032034A012303F097F803B05DF804FBC3
:1031E0008009002003F066B92DE9F04107460E463C
:1031F00003F0CCF90446002800F0A980DFF8CC8168
:1032000032460121404602F027FB0546002800F027
:10321000A080564A136843F080431360D8F800300A
:10322000C2E90233524A116841F08041116003F152
:103230001001C2E902114F4A116841F0804111604A
:1032400003F15001C2E902114B4A116841F080417B
:10325000116003F17001C2E90211484A116841F09E
:103260008041116003F1F001C2E90211444A116882
:1032700041F08041116003F5DE61C2E90211414A6B
:10328000116841F08041116003F5EE61C2E902115D
:103290003D4A116803F5016341F080411160C2E9C4
:1032A0000233DFF82C8132460121404602F028FB30
:1032B0000646002853D0D8F80030344903F50D42B3
:1032C000C1E902223249C1E90222324903F50C4226
:1032D0005C32C1E90222304903F51042C1E9022201
:1032E0002E4903F50A40C1E902002D4803F50841C3
:1032F000BC31C0E902112B4903F54040C1E902008D
:103300002949C1E902332949C1E90222284AC2E90F
:103310000233284A03F16001C2E90211264AC2E9D8
:103320000233264A03F14001C2E90211244AC2E9EC
:103330000233244A03F11401C2E90211224AC2E90C
:103340000233384603F010FA30400540E8B2BDE8D9
:10335000F08112223021204602F012FDA1E7132253
:103360003021204602F00CFDEBE700BFD80800201A
:1033700010080020E40700201C070020880A002015
:10338000E8090020540B0020B40A0020C00C0020E3
:1033900024090020AC08002080080020300C002008
:1033A000B80700208C070020F0060020940C0020B5
:1033B0005C0A0020300A0020280B0020FC0A0020B4
:1033C000CC0B0020A00B0020700900202833012026
:1033D0002433012003F050BA002203F04DBA002339
:1033E000C0E90232C0E90011B1F803301A440261A9
:1033F000B1F905301A4442610888003818BF01202D
:10340000704741680A8870B50346002A38D0B1F881
:103410000F4001F10F0242602CB9C2680168FFF74A
:10342000DEFF204670BD8878B1F807204C8A00F096
:103430003006302E0AD14D7C05F03005302D19D1E3
:103440004FF6FF75AC4215D10120EBE700F0F00517
:10345000202D0FD1B1F80900424316B99868013008
:10346000986014441A6922441A61B1F914100A448C
:103470005A61E9E700F0C000802808BF0422ECE7A9
:103480001046CFE770B5466804460D4663681A8853
:10349000AA4204D19B7803F00F03082B07D12046E2
:1034A000FFF7AFFF6368B342F0D1002070BD012089
:1034B000FCE710B54468A318436039B9012010BD7A
:1034C000E05CC85401339342FAD1F7E70023FAE7EE
:1034D00070B54568AA7802F00F06082E86B003463C
:1034E0001FD103691C6800260CB906B070BD2368A3
:1034F00062689D68267329466846FFF770FF636817
:10350000049304F10C030593AB7803F0C003802B04
:1035100008BF231D684608BF0493FFF7D9FFA468BE
:10352000E2E712F0C00127D102F03000102810D1DC
:10353000D3E90402824200D01170072ED5F80B4067
:1035400018690BD10146204606B0BDE8704000F076
:103550001BB89006F1D55B691980C6E7B5F807205E
:10356000214624B106B0BDE8704009F03CB906B070
:10357000BDE8704009F0EEB88029B6D1006900219D
:1035800092060160B1D5E6E77FB50A460146684676
:10359000FFF725FF30B16846FFF79AFF6846FFF74F
:1035A00030FFF7E707B05DF804FB0000836810B553
:1035B00004463BB9C2680B49002A08BF0A46C260EC
:1035C000184610BD03680122984730B9E368064ADF
:1035D000002B08BF1346E360F3E7A368013BA36039
:1035E000EFE700BFF8000108060101082DE9F341EB
:1035F00088460DF1070105461446FFF7D7FF06463A
:1036000058B9AB680BB1002603E0002CFBD00123B6
:103610002370304602B0BDE8F0819DF907309DF877
:103620000740002B2ADA04F07F0407270DF1070179
:103630002846FFF7BBFF0028E5D09DF807301F2F75
:1036400003F07F020FD93F2F34BFFF21012162B168
:10365000002C01DA994208D0EB680A4A002B08BF17
:103660001346EB60CFE7BA4014431A0607F1070789
:10367000DCD4232F02D113F0700FEDD1C8F8004035
:10368000C7E700BF0F01010830B5044685B01546F5
:10369000A9B90268174B9A4211D0102D06D82A46B4
:1036A00069462046FFF7F0FF05B030BD102269469D
:1036B0002046FFF7E9FF0028F6D0103DEDE7A368AC
:1036C000AB4207D2E3680C4A002B08BF1346E36005
:1036D0000020E9E723682A462046984730B9E36886
:1036E000064A002B08BF1346E360DDE7A3685B1BB7
:1036F000A360D9E7B3340008F80001080601010807
:103700000022FFF773BF0000F7B50F4601A904467A
:103710001646FFF7F5FF054688B10199B1F5803FE0
:1037200007D3E3680E4A002B08BF1346E360002569
:1037300005E0B7F8072029B9304609F00BF828460C
:1037400003B0F0BD914202D0E368064AEBE70A46B7
:103750002046314603B0BDE8F040FFF795BF00BFFB
:103760001F0101082E0101082DE9F341884601A936
:1037700004461646FFF7C4FFA0B1019D6A1C4FF036
:10378000000708D298F8023003F0C003802B0CD158
:10379000E3680D4A01E0E3680C4A002B08BF1346BA
:1037A000E360384602B0BDE8F081B8F807309342D4
:1037B00002D2E368064AF0E72A4631462046FFF780
:1037C00063FF7755EEE700BF5F0101085001010874
:1037D0007101010873B50E4601A904461546FFF7AD
:1037E0008FFF98B1019AB2F5803F02D3E3680F4A88
:1037F00008E0B37803F0C003802B02F1020108D186
:10380000E3680B4A002B08BF1346E360002002B0B8
:1038100070BDB6F807308B42E8D32946204621F820
:10382000022B02B0BDE87040FFF72EBF1F01010858
:103830005F0101082DE9F341002506460F46A84621
:103840002C460DF107013046FFF7B0FE10B39DF88E
:1038500007C0A4F120030CF07F02C4F1200102FA9A
:1038600003F322FA01F10B43A2401CF0800F45EA5A
:10387000020543EA080804F1070402D1C7E9005829
:1038800008E0462CDDD1F368044A002B08BF13463C
:10389000F360002002B0BDE8F08100BF0F01010815
:1038A00073B50E46694604461546FFF7C3FF38B1A7
:1038B000B6F80730082B05D1DDE90023C5E9002360
:1038C00002B070BD042B0BD1009B2B60DDE90051D1
:1038D0000022914208BF9D42F2D0E3680B4A0EE0FD
:1038E000022B03D1009B2B809BB2EFE7012B04D16D
:1038F000009B2B7003F0FF03E8E7E368044A002B0A
:1039000008BF1346E3600020DAE700BF9301010817
:103910008101010873B50E46694605461446FFF756
:1039200089FF38B1B6F80730082BDDE9002103D153
:10393000C4E9002102B070BD042B4FEAE27601D148
:103940002260F7E7022B09D113B22380D917B142C5
:1039500008BF9342EED0EB68074A06E0012B02D184
:1039600053B22370F2E7EB68044A002B08BF1346FA
:10397000EB600020DEE700BF930101088101010830
:10398000F7B51D4600232B700E460B7017461360CB
:1039900001A92A46FFF72AFE20B1019C24B9012380
:1039A0002B70204603B0F0BDE30804F007043B6031
:1039B0003470F7E713B50446052921D8DFE801F094
:1039C000030F1720201E012201A92046FFF75CFEED
:1039D00018B19DF90430002BF5DB02B010BD0822B0
:1039E0000021204602B0BDE81040FFF74DBE01A9FE
:1039F000FFF786FE0028F0D0019AF1E70422EFE7F6
:103A0000C368034A002B08BF1346C3600020E4E7E5
:103A1000A501010873B50D4601A90446FFF770FE24
:103A2000064668B194E80F0085E80F0001998A42C4
:103A300009D2E368064A002B08BF1346E36000265C
:103A4000304602B070BDA960A3685B1AA360F7E7B7
:103A5000B70101088A6838B505460C462AB963687B
:103A60006B60E368EB60012038BD00212046FFF762
:103A70000BFE0028F3D1F7E72DE9F0430B46516820
:103A800016468A7802F0C004402C89B0054600F042
:103A90008380802C7DD064B902F00F0C6F4F02F050
:103AA0003002202A57F82C702BD005D8DAB1102A12
:103AB0001FD0EB686A4A4CE0302AFAD173690A8851
:103AC0001A80BCF1070F0BD1B1F8072030692146ED
:103AD00008F040FE73683169D3F80B00FFF754FD1E
:103AE000326971680BE032693B4609B0BDE8F043CA
:103AF0001847D6E9042393421CBF012018702846BA
:103B0000F2E7022BD6F8148034D1BCF1040F31D87F
:103B100004A9FFF77FFF044670B9002426E0B1F83E
:103B20000700326903FB002204A8B847B0B1B8F817
:103B300000300133A8F80030069B33B17168B8F843
:103B40000030B1F809209A42E9D8069B43B1EB68EE
:103B5000444A002B08BF1346EB60DEE70446F4E757
:103B600004A92846FFF776FF0028D6D0204609B0E2
:103B7000BDE8F083B8F800303269B1F807005C1C8A
:103B8000A8F80040B1F809409C42E0D903FB0022AC
:103B9000B5E7C368344ADCE737690FB13A6832B930
:103BA0001946284609B0BDE8F043FFF703BF022BD2
:103BB00007F104081CD104A9FFF72CFF04460028D4
:103BC000D4D03B687168424604A89847044630B98F
:103BD000EB68264A002B08BF1346EB60C6E7069B3E
:103BE000002BEED104A92846FFF734FF0446BDE7B9
:103BF000012B20D0052B26D063BB1C460DF10409F8
:103C000001340B2C89D0012249462846FFF73CFDA0
:103C1000002882D019F9013B002BF1DB144B0493EF
:103C200001ABCDE905340023079371683B68424638
:103C300004A89847DAE7082201A9FFF725FD082420
:103C40000028EBD169E704220DEB0201FFF71CFD10
:103C50000424F5E7C368074A7BE700BF5402010864
:103C6000DE010108CF0101085F010108F10101082F
:103C7000B3340008A50101082DE9F04F91B00025EB
:103C8000044604A8CDE90255ADF80250FFF7A7FBA2
:103C9000A846A368F3B935B1B5F80920BDF80230DC
:103CA0009A4240F09480DDE9053504A89E78FFF73C
:103CB000A8FB0028F7D116F0300F03D1059B1B8815
:103CC00003B10135402D00F2CA80002D40F0C880BC
:103CD00001200CE00DF1010301AA69462046FFF71F
:103CE0004FFE38B99DF80130002BD4D1002011B01F
:103CF000BDE8F08F019F04A83946FFF7C3FB0028F9
:103D000052D14745C0F0B380059E059A937803F0E1
:103D10000F03082B00F0B48004A8FFF772FB059B8B
:103D20009E42F2D14FF0FF3847459DF800B0C0F0F9
:103D30009E80089AD4F808901668A268002E00F0B9
:103D400093809145A5D13268D2F800A0BAF1000F56
:103D500008D05B463A4631462046D0470028C5D0B9
:103D6000B668EAE7D2F808A0BAF800209742F7D17F
:103D7000726851460AA8FFF732FB72680E9206F18C
:103D80000C020F929AF8022002F0C002802A08BFAB
:103D9000321D4FF0010308BF0E92594633730AAA31
:103DA0002046FFF769FED9E7059A937803F03003C0
:103DB000202B21D1DDE90831994216D1AA4210D039
:103DC00065B1B5F80910BDF80230994206D0E36834
:103DD0002D4A002B08BF1346E36087E70023ADF8A8
:103DE00002300DF10203099315469DF8001004AA54
:103DF0002046FFF741FE3FE0002BF6D1069A3F2A0E
:103E0000F3D8510910AB03EB810102F01F0201232B
:103E1000934051F8382C134341F8383CE5E751F80A
:103E2000046B013606D0E368184A002B08BF13461E
:103E3000E3605CE701329342F1D115F01F053FF4D6
:103E400047AF10AA02EB8303C5F1200553F8383CB5
:103E50004FF0FF32EA4093423FF43AAFE3E74025A8
:103E60006B0902A90022E6E791457FF412AF9DF8A5
:103E700000102046FFF79EFD00287FF40AAF35E7CB
:103E8000B2F8008050E700BF0102010822020108D9
:103E900037B50C460546114620460192FFF774FBE4
:103EA000019A2146284603B0BDE83040FFF7E4BE42
:103EB000F0B587B00E460192D1F80B7002A9054605
:103EC000FFF7A8FDE0B1D6F80B40019A44B9EB68C2
:103ED0000E4A002B08BF1346EB60204607B0F0BD2A
:103EE000B37803F03003202B394602A80AD1FFF73C
:103EF000CFFF044602A92846FFF7ACFD0028ECD10D
:103F00000024EAE7FFF7B8FEF3E700BF3902010833
:103F100030B587B00C4602A905460192FFF77AFD3D
:103F200050B12146019A02A8FFF7B2FF02A9044648
:103F30002846FFF78FFD00B90024204607B030BDAA
:103F400013B50C466946FFF775FC60B1DDE9001357
:103F50004A0842EAC372C9074FEA530344BFD24337
:103F6000DB43C4E9002302B010BD000073B50E4668
:103F7000694604461546FFF7E3FF38B1B6F8073047
:103F8000082B05D1DDE90023C5E9002302B070BD8F
:103F9000042B0BD1009B2B60DDE90051DA17914215
:103FA00008BF9D42F2D0E3680A4A0DE0022B03D11C
:103FB000BDF900302B80EFE7012B03D19DF90030D4
:103FC0002B70E9E7E368044A002B08BF1346E3605F
:103FD0000020DBE7930101088101010813B50422E9
:103FE0000C460DEB0201FFF74FFB08B1019B23606C
:103FF00002B010BD1146FFF7F1BF13B508220C4601
:104000006946FFF741FB18B1DDE90023C4E900234D
:1040100002B010BD1146FFF7F0BF10B50A46817817
:1040200011F0300386B042D0202BB0F9054004D106
:10403000105BB0FA80F0400907E0302BF8D0102B6D
:1040400005D124B1105D80F0010006B010BD11F063
:10405000C00F06D0B0F807301344934223D101209B
:10406000F3E701F00F03052B01D11088E1E7062BE0
:1040700001D11078DDE7092B02D1B0F80700D8E7AD
:10408000072BE7D1D0F80B106846FFF7A8F90028F6
:10409000E5D004990198FFF7C0FF0028D5D0684605
:1040A000FFF7AFF9F3E712F8011B0029D5D0002084
:1040B000CBE70000F8B50668C36804461546A6B10C
:1040C000876813449F4207D203690A4A002B08BF3E
:1040D000134603610020F8BDB04730B92369064A92
:1040E000002B08BF13462361F5E7E3682B44E36028
:1040F0000120F0E77C02010806010108F0B5802AE2
:1041000073F1000185B0054607D28DF8042001A99E
:104110000122FFF7CFFF05B0F0BD01AE002462F031
:104120007F0106F8011BD109D0B241EA4362DB09E5
:1041300052EA0307214604F10104F0D101F1100312
:104140006B4400F07F0203F80C2C01A9224628469C
:10415000DFE70000B1F80730012B04D1117800230C
:104160000A46FFF7CBBF022B01D11188F7E7042BDA
:1041700001D11168F3E7082B02D1D2E90013EFE770
:104180000369034A002B08BF1346036100207047F0
:10419000810101081346B1F80720012A04D193F9DF
:1041A0000020D317FFF7AABF022A02D1B3F90020DB
:1041B000F7E7042A01D11A68F3E7082A02D1D3E904
:1041C0000023EFE70369034A002B08BF134603618E
:1041D0000020704781010108921843EB030182EA35
:1041E000E37281EAE373FFF789BF00001346B1F879
:1041F0000720012A04D193F90020D317FFF7ECBF61
:10420000022A02D1B3F90020F7E7042A01D11A6883
:10421000F3E7082A02D1D3E90023EFE70369034A51
:10422000002B08BF1346036100207047810101087D
:1042300007B504220B6801930DEB0201FFF73AFF6B
:1042400003B05DF804FB1146FFF7F2BF07B5D1E9F3
:10425000002300921A0A8DF805201A0C8DF80430FC
:104260008DF806201B0E082269468DF80730FFF7EF
:1042700021FF03B05DF804FB1146FFF7E7BF1346CB
:104280005B0F41EAC202FFF739BF00008B7803F0F1
:104290000F03092B11D8DFE803F00C0C0C050E0AF4
:1042A0000A0A100A05230A881946FFF7E8BF022305
:1042B000F9E70023F7E70123F5E70369034A002B39
:1042C00008BF134603610020704700BFDE010108EC
:1042D0002DE9F04716468A7802F0C003402B86B0DD
:1042E00005460C4600F0DD8053061BD4754B02F0EA
:1042F0000F0153F82170B4F90530B3B13344A278FB
:1043000002F0C000802805D13668311E18BF012197
:104310008DF8031002F0300120293ED018D861B387
:10432000102933D02B69684A2BE002F03002102AA2
:104330000AD131462046FFF770FE80F001008DF86B
:1043400003000DF10303DAE701238DF80330F8E7EA
:104350003029E7D11A8823889A421AD12146284663
:10436000FFF794FF002800F090803246214628464F
:104370003B4606B0BDE8F0471847002EEED12B694A
:10438000524A002B08BF13462B617EE01B78002B9E
:10439000E4D1012006B0BDE8F087B4F9051069B199
:1043A000B3F80080B8F1000FF3D0802809D0B4F83A
:1043B0000930984505D92B69454AE2E7B4F80980E8
:1043C000F0E702F00F02042A49D822880221284689
:1043D000FFF755FF002858D0A37803F00F03032BF5
:1043E00011D14FEA88094A4600232846FFF786FE86
:1043F00000284AD0296819BB4A46284606B0BDE8BD
:10440000F047FFF757BE042B02D14FEAC809EAE78D
:104410001422002101A808F09DF9B2464FF00009CE
:104420005246214601A8B8470028B3D0B4F8073057
:1044300009F10109C8459A44F2D8DDF81090D2E795
:104440004FF00009324621462846B847E8B1B4F893
:10445000073009F10109C8451E44F3D899E74FF028
:10446000000921462846FFF711FF70B1A37803F039
:10447000C002802A13D103F00F03053B012B0ED895
:10448000326821462846B84708B9002082E7B4F8C8
:10449000073009F10109C8451E44E2D879E73246E0
:1044A000EFE73368002B3FF474AF321D98470028C4
:1044B0007FF46FAF2B69074A002B08BF13462B61AF
:1044C00068E700BFD8020108DE01010822020108E6
:1044D00088020108A002010830B587B00546684689
:1044E000FEF77DFF10B9012007B030BD0199049A95
:1044F0008B7803F00F03082B1CD114681CB9684695
:10450000FEF77FFFEEE723685A682AB12146284666
:10451000904768B90020E7E799688B7803F0C003FB
:10452000802B14BF6268221D2846FFF7D1FEF0E7FA
:10453000A468E3E72846FFF7CBFE0028DFD1E9E7D0
:1045400037B50023044601911546FFF7D7FD38B172
:1045500001992A46204603B0BDE83040FFF7AABDC6
:1045600003B030BD1346B1F807201946FFF7E8BF86
:1045700010B4B1F80730897801F0C001802908BF74
:104580004FF0FF33114622B100229A4201D08C5CD9
:104590001CB95DF8044BFFF7D3BF0132F5E700000B
:1045A00070B403460C46114612B970BCFFF7C8BF81
:1045B000A078128810F0C00004D1B4F80760951CF0
:1045C000B54202D802311846EFE71A690349002ABA
:1045D00008BF0A4670BC1A61704700BFAF020108ED
:1045E0002DE9F04186B00F46904600211422044682
:1045F00001A808F0AFF84246394601A8FFF76CFF62
:1046000010B9059B23610DE0049E002532462B4620
:104610002046FFF773FD28B1216831B932462046A4
:10462000FFF748FD06B0BDE8F081E368A2683344B7
:10463000934207D923690E4A002B08BF1346236112
:104640002846EFE7636801914246394601A8CDE963
:104650000236CDE90455FFF73FFF049AE36813449F
:10466000E360B242029B6360059BCBD0014AE3E763
:104670007C020108C3020108D1F80B10034609B1FE
:10468000FFF7AEBF02690348002A08BF02461A615D
:10469000084670473902010810B594B01022002175
:1046A0000AA808F057F81422002103A808F052F8CD
:1046B0001F4B002101911A6C42F080521A641B6C4E
:1046C00003F080530193019B1A4B02911A6842F444
:1046D00080421A601B6803F480430293029B01210D
:1046E0004FF480330224CDE908134FF48003CDE961
:1046F0000E43A822042308A8CDE91032CDE91243C5
:1047000000F0E0FA08B172B6FEE70F23CDE90334FA
:1047100005904FF4A0524FF48053052103A8CDE932
:10472000062300F0A9FC08B172B6FEE714B010BD74
:10473000003802400070004000B589B000F010FF62
:10474000FFF7AAFF1422002103A808F003F80024B1
:104750002E4B01941A6B2E4842F080021A631A6B9A
:1047600002F080020192019A02941A6B42F0080250
:104770001A631B6B03F00803029322464FF4E041D7
:10478000029B00F099FA012321484FF4E04203A96B
:10479000CDE90323CDE9054400F0B4F91D481E4BD3
:1047A000036000F09FF908B172B6FEE7FEF700F96A
:1047B000174C204600224FF4805100F07DFA20462D
:1047C00000224FF4005100F077FA00224FF48041AC
:1047D000204600F071FA642000F0EEFE204601222F
:1047E0004FF4805100F068FA204601224FF4005146
:1047F00000F062FA01224FF48041204600F05CFA9A
:10480000642000F0D9FEFEF7DAF8D2E70038024063
:10481000000C02402C330120003002400A480B4AB1
:1048200008B54FF4E133C0E9002300230C22C0E9AE
:104830000233C0E905230361C36100F09BFD08B1A9
:1048400072B6FEE708BD00BF3433012000480040C7
:1048500082B00C4B002100915A6C42F480425A64A1
:104860005A6C02F480420092009A01911A6C42F054
:1048700080521A641B6C03F080530193019B02B0B9
:10488000704700BF003802400268094B9A4282B06C
:104890000BD100230193074B1A6B42F480521A6329
:1048A0001B6B03F480530193019B02B0704700BF60
:1048B000003002400038024010B5044688B014228F
:1048C000002103A807F046FF2268144B9A4223D127
:1048D00003F5F833002101911A6C114842F480224B
:1048E0001A641A6C02F480220192019A02911A6BE6
:1048F00042F008021A631B6B03F008030293029B49
:104900004FF4407202230321CDE903230723CDE9AD
:10491000061303A900F0F6F808B010BD00480040E7
:10492000000C0240FEE7FEE7FEE7FEE7FEE7704709
:104930007047704700F02EBE0120704708B507F0A1
:1049400025FF162303604FF0FF3008BD08B507F0C0
:104950001DFF16230360FEE770B50D4614460E4694
:10496000731B9C4201DC204670BDAFF3008006F84B
:10497000010BF5E74FF0FF3070474FF400534B60E9
:104980000020704701207047002070470B4A1168D3
:1049900010B5034609B90A491160106809490A4C63
:1049A0000344091B8B4206D907F0F0FE0C23036079
:1049B0004FF0FF3010BD1360FCE700BF7C330120D7
:1049C000D034012000C0012000080000034AD2F8C2
:1049D000883043F47003C2F88830704700ED00E07F
:1049E000DFF834D0FFF7F2FF0C480D490D4A0023E1
:1049F00002E0D458C4500433C4188C42F9D30A4A94
:104A00000A4C002301E013600432A242FBD307F0FA
:104A1000C3FEFFF791FE704700C001200000002098
:104A2000A40E0020440B0108C00E0020D034012049
:104A3000FEE700000749CA6822F4E062030212049C
:104A400003F4E063120C134343F0BF6343F40033F9
:104A5000CB60704700ED00E0164B30B5DC68C4F366
:104A60000224C4F10703251D042B28BF0423062DAF
:104A70004FF0FF358CBF033C002405FA03F321EA15
:104A80000303A54022EA0502A340002843EA0203EB
:104A9000ACBF00F16040084A4FEA0313B8BF00F012
:104AA0000F00DBB2AABF00F56140135480F8003359
:104AB00030BD00BF00ED00E014ED00E00138B0F1C2
:104AC000807F0BD24FF0E023054A5861F02182F835
:104AD00023100020072298611A6170470120704757
:104AE00000ED00E010B5044650B1437903F0FF0239
:104AF00013B90271FFF7C8FE01236371002010BDD6
:104B00000120FCE72DE9F74FDFF8A891674A002361
:104B10000D6801249C4004EA050CAC4340F0B180D0
:104B20004D6805F003044FEA43080326671E06FAA2
:104B300008F6012F6FEA060634D8876807EA060EE2
:104B4000CF6807FA08F747EA0E078760476827EA41
:104B50000C0EC5F300179F4047EA0E074760C76871
:104B600007EA060E8F6807FA08F747EA0E07022CD5
:104B7000C76019D14FEAD30A00EB8A0A03F0070B8A
:104B8000DAF820704FEA8B0B4FF00F0E0EFA0BFE87
:104B900027EA0E0E0F6907FA0BF747EA0E07CAF865
:104BA000207001E0032CDAD1076804FA08F43740DA
:104BB0003C4315F4403F046063D04FF0000ACDF849
:104BC00004A0D9F844603A4C46F48046C9F84460E1
:104BD000D9F8446006F480460196019E23F003064E
:104BE00006F1804606F59C3603F0030ED6F80880E1
:104BF0004FEA8E0E0F2707FA0EF7A04228EA0707A2
:104C000046D004F58064A04244D004F58064A042FC
:104C100042D004F58064A04240D004F58064A042F4
:104C20003ED004F58064A0423CD004F58064A042EC
:104C30003AD004F58064A0420CBF0724082404FA8B
:104C40000EF43C43B46094686FEA0C06EF0254BF64
:104C500034404CEA04049460D468AF0254BF34403A
:104C60004CEA0404D4605468AF0354BF34404CEAA7
:104C7000040454601468ED0354BF34404CEA040447
:104C800014600133102B7FF443AF03B0BDE8F08F05
:104C90005446D4E70124D2E70224D0E70324CEE728
:104CA0000424CCE70524CAE70624C8E7003C0140F9
:104CB00000000240003802400AB1816170470904D7
:104CC000FBE700002DE9F341044640B30368DD072C
:104CD00010D4236898075BD423681A0700F19D80DD
:104CE00023685B0700F1BD80A069002840F02481A3
:104CF00000202CE08D4B9A6802F00C02042A07D0A9
:104D00009A6802F00C02082A0BD15B68590208D598
:104D1000864B1B689A03DCD56368002BD9D1012030
:104D200015E06368814DB3F5803F13D12B6843F4E0
:104D300080332B6000F03AFC7C4E054633689B03C1
:104D4000C7D400F033FC401B6428F7D9032002B01D
:104D5000BDE8F081B3F5A02F04D12B6843F4802384
:104D60002B60E3E72A6822F480322A602A6822F462
:104D700080222A60002BDDD100F018FC06462B684B
:104D80009F03A6D500F012FC801B6428F7D9DDE74D
:104D9000664B9A6812F00C0F07D09A6802F00C026A
:104DA000082A11D15B685E020ED4604A13689D0721
:104DB00002D5E368012BB2D11368216923F0F8030F
:104DC00043EAC103136087E7E268594BB2B101229D
:104DD0001A6000F0EBFB554D06462B68980707D587
:104DE0002B68226923F0F80343EAC2032B6073E7C0
:104DF00000F0DCFB801B0228EFD9A7E71A6000F067
:104E0000D5FB4A4E0546336899077FF565AF00F03C
:104E1000CDFB401B0228F6D998E76269444B82B16A
:104E20000122C3F8802E00F0C1FB404E0546736F8F
:104E30009F073FF555AF00F0B9FB401B0228F6D99C
:104E400084E7C3F8802E00F0B1FB384E0546736F3F
:104E500098077FF545AF00F0A9FB401B0228F6D963
:104E600074E7324B1A6C12F0805228D101921A6CFE
:104E700042F080521A641B6C03F080530193019B33
:104E800001272C4D2B68D9051BD5A368274D012B75
:104E900027D12B6F43F001032B6700F087FB234ED4
:104EA000054641F28838336F9B0739D5002F3FF410
:104EB0001BAF1E4A136C23F08053136414E70027C2
:104EC000DFE72B6843F480732B6000F06FFB06462E
:104ED0002B68DA05D9D400F069FB801B0228F7D9CA
:104EE00034E7052B04D12B6F43F004032B67D0E785
:104EF0002A6F22F001022A672A6F22F004022A6731
:104F0000002BCAD100F052FB41F2883806462B6FC5
:104F10009807CBD500F04AFB801B4045F7D915E731
:104F200000F044FB401B4045BDD90FE7003802406C
:104F30000000474200700040364DAB6803F00C03A0
:104F4000082B3DD0344B002202281A662BD100F0EA
:104F50002DFB06462B6899011FD4D4E90732134371
:104F6000626A43EA8213E26A43EA0263A26A52086F
:104F7000013A43EA02436B60274B264D01221A6631
:104F800000F014FB04462B689A013FF5B1AE00F027
:104F90000DFB001B0228F6D9D8E600F007FB801BAA
:104FA0000228D7D9D2E600F001FB04462B689B010A
:104FB0007FF59EAE00F0FAFA001B0228F6D9C5E68E
:104FC00001283FF4C4AE6B68E26903F480019142AA
:104FD0007FF4A5AE216A03F03F028A427FF49FAEC0
:104FE000616A47F6C0721A40B2EB811F7FF497AE38
:104FF000A26A520803F44031013AB1EB024F7FF448
:105000008EAEE26A03F07063B3EB026F3FF470AEF2
:1050100085E600BF0038024000004742134908B54A
:105020008B6803F00C03042B1CD0082B1CD14A689E
:105030004B68496813F4800314BF0D480D48C1F351
:10504000881118BF002302F03F02A1FB0001FBF70B
:1050500023FE064B5B68C3F3014301335B00B0FBE7
:10506000F3F008BD0248FCE70248FAE700380240C6
:1050700000127A000024F4002DE9F0410D460446A8
:1050800010B90120BDE8F081434B1A6802F0070215
:105090008A4228D321688F072DD4C80740D43E4BBD
:1050A0001A6802F00702AA4265D8226851076BD439
:1050B000130707D5394A2169936823F4604343EA0B
:1050C000C1039360FFF7AAFF344B354A9B68C3F3D3
:1050D0000313D35CD840334B1860334B186800F08F
:1050E0001BFA0020CEE7CAB21A701B6803F0070350
:1050F0008B42C6D1CEE7294B11F0040F1EBF9A6830
:1051000042F4E0529A600E0742BF9A6842F460424D
:105110009A609A68A06822F0F00202439A60BCE7A5
:1051200062681E4B012A1CD11B6813F4003FA8D0F3
:105130001A4EB36823F003031343B36000F036FA4A
:1051400041F288380746B368626803F00C03B3EB9A
:10515000820FA4D000F02AFAC01B4045F3D90320E7
:1051600090E7911E01291B6802D813F0007FDEE74B
:1051700013F0020FDBE7EAB21A701B6803F00703B3
:10518000AB427FF47EAF90E70449E0688B6823F47C
:10519000E05303438B608BE7003C02400038024041
:1051A00081070108D00C0020D80C0020014B1868A2
:1051B000704700BFD00C0020044B054A9B68C3F326
:1051C0008223D35C034A1068D840704700380240FD
:1051D00091070108D00C0020044B054A9B68C3F3DB
:1051E0004233D35C034A1068D8407047003802400D
:1051F00091070108D00C0020026802F10C0353E86B
:10520000003F23F490730C3242E800310268002919
:10521000F2D102F1140353E8003F23F0010302F13D
:10522000140C4CE800310029F3D1036B012B0BD196
:1052300002F10C0353E8003F23F0100302F10C0CC1
:105240004CE800310029F3D1202380F842300023BC
:10525000036370470268C168136923F440530B432A
:1052600070B51361054683680069D16803436869B6
:105270000343E86921F4164121F00C0103430B4379
:10528000D3605369A96923F440730B4353611F4BE7
:105290009A4203D003F580639A4223D1FFF79CFF23
:1052A000EB691921B3F5004FD5E90046A0FB0101D8
:1052B0001BD1B2194FF000035B41FBF7EDFC6422F8
:1052C000B0FBF2F102FB1103DB003233B3FBF2F36C
:1052D00003F007025B0002EB011203F4F8731344BE
:1052E000A36070BDFFF768FFDAE7B200B30FFBF70A
:1052F000D3FC6422B0FBF2F102FB11031B01323339
:10530000B3FBF2F303EB0113EAE700BF0010014027
:10531000F7B505460C4617461E462A68136834EA58
:10532000030301D1002021E0701CF7D000F03EF90A
:10533000C01B86421CD3DEB12B68DA685107ECD55E
:10534000802CEAD0402CE8D01A681207E5D500245A
:1053500001941A6801925B6801932846019BFFF74C
:105360004BFF08236B6485F84040012003B0F0BD7B
:105370000320FBE710B5044648B390F8413003F032
:10538000FF021BB980F84020FFF796FA2268242319
:1053900084F84130D36823F40053D3602046FFF7EC
:1053A00059FF23681A6922F490421A615A6922F05F
:1053B0002A025A61DA6842F40052DA60002020239F
:1053C000606484F8413084F84230606310BD01208D
:1053D000FCE7F7B5174690F841200093202A0446D1
:1053E0000E4640D1002940D0002F3ED0212200257A
:1053F000456480F8412000F0D9F8A168009BA7849B
:10540000B1F5805F0246E78403D1216909B93546C9
:105410000E46E18C89B249B940212046FFF778FF5A
:10542000202384F8413068B903B0F0BD80212046C4
:10543000CDE90023FFF76CFFDDE9002320B1202335
:1054400084F841300320EFE720684EB935F8021B9D
:10545000C1F308014160E18C013989B2E184D8E7E8
:1054600016F8011BF6E70220DEE70120DCE72DE954
:10547000F843994690F84230202B04460F461546D3
:1054800046D1002946D0002A44D022230026466473
:1054900080F84230066300F089F8A368A585B3F56B
:1054A000805F8046E58503D123690BB93E461F46E0
:1054B000E58DA8B218B9202384F842300AE04B46A3
:1054C000424620212046FFF723FF28B1202384F8FD
:1054D00042300320BDE8F88323684FB95B68C3F30B
:1054E000080326F8023BE38D013B9BB2E385DFE72F
:1054F000A268B2F5805F02D032B9226922B9596838
:10550000C9B207F8011BEEE7596801F07F01F8E71F
:105510000220DFE70120DDE738B50E4B1A784FF4A3
:105520007A73B3FBF2F30C4A05461068B0FBF3F054
:10553000FFF7C4FA044658B90F2D09D80246294688
:105540004FF0FF30FFF788FA044B20461D6038BD4E
:105550000120FCE7D40C0020D00C0020D80C002047
:1055600008B50B4B1A6842F400721A601A6842F4CC
:1055700080621A601A6842F480721A600320FFF792
:1055800059FA0F20FFF7C8FFFFF762F9002008BDA6
:10559000003C0240034A044B11681B780B44136023
:1055A000704700BF80330120D40C0020014B1868E5
:1055B000704700BF8033012038B50446FFF7F6FF7F
:1055C000631C1CBF054B1B78054618BFE418FFF78A
:1055D000EDFF431BA342FAD338BD00BFD40C00201B
:1055E0000048704700020801014B1868000C704722
:1055F000002004E0024B1868C0F30B00704700BFA6
:10560000002004E0120242EA014242EA00607047D0
:10561000020E002362F30703C0F3074262F30F2375
:10562000C0F3072060F3174382B023F07F4002B03D
:10563000704700BF11B183695868704783681B0ABF
:105640000AD0C168012001EB830353F8042D99426D
:1056500002FB00F0F9D170470120704710B4836954
:10566000C46841691B68E068074AC9685DF8044B73
:1056700023F07E4323F4000301FB00F0934204BFB8
:105680000730C008704700BFC000040078B310B4F2
:105690000368174A23F07E4323F4000393421ED08D
:1056A00084696268037D4169A3F10103B3FA83F35E
:1056B0005B09B3EB112FC1F317200BDA012B02D1D9
:1056C000022807D0022354F823100133984201FB2B
:1056D00002F2F3D122EAE2705DF8044B7047002930
:1056E000DED0846963681F3323F01F02DAE7704756
:1056F000C000040028B1C1F3C61101FB00F007305F
:10570000C008704738B1436823B14088003818BFDB
:10571000012070471846704750B143684BB140882C
:1057200000B97047C1EBC10103EB810101204A6060
:1057300070471846704700BF002A7DD02DE9F0431E
:10574000156885B01446002D78D09289B4F80EC043
:10575000002A0B4640F2023140F2022E08BF0E46EC
:105760000CF1FF3C40F201211CBF76464FF4017959
:1057700040F2013E0EBF4FF441798E464FF00408CF
:1057800040F201110DBF4FF48278012102274FF43E
:105790008177944534D000B3012853D0022835D006
:1057A000032816D1A3685B0711D52369ADF8002043
:1057B0005A88ADF804201A88ADF802209A6960680A
:1057C0000023CDE9023241466A46A847A289013248
:1057D000A281002005B0BDE8F083A668F607F6D5E3
:1057E00002905888ADF8040018889B69ADF8002035
:1057F000ADF802006A4660680393A847A289E6E70D
:10580000C846374671460028C6D1E6E7A16823613D
:105810008907DED5ADF800205A88ADF804201A8833
:105820009B696068ADF802200024CDE90243394647
:105830006A46A8472046CDE701207047012005B001
:10584000BDE8F08300202361A08105B0BDE8F083AE
:1058500001207047704700BF002A37D0F8B50446D2
:10586000A0B10F4691B1254B1068984215460FD054
:1058700055685DB12E689E422AD0A1F101002560D5
:10588000B0FA80F04009F8BDA74234D00020F8BD3E
:10589000101DFFF737FF0028F8D0EB889F42F5D1A5
:1058A0004FF0000E231F7046AA6802EB0E0C0EF19B
:1058B0001C0EDCF8044024B10130874243F8044F49
:1058C000F2D1381AB0FA80F04009F8BD00207047D4
:1058D000231F2846002400E0144650F8042FB2424B
:1058E000D2D043F8042F621C9742F5D1023455F808
:1058F0002430B342CAD10120F8BD00BFDECAFAA1EC
:10590000002A38D0F8B50446A0B10F4691B1254B16
:105910001068984215460FD0156A5DB12E689E42F8
:105920002BD0A1F101002560B0FA80F04009F8BD4C
:10593000A74235D00020F8BD02F10C00FFF7E2FECF
:105940000028F7D0EB899F42F4D14FF0000E231FBF
:1059500070462A6902EB0E0C0EF11C0EDCF80440B6
:1059600024B10130874243F8044FF2D1381AB0FA1B
:1059700080F04009F8BD00207047231F284600240E
:1059800000E0144650F8042FB242D1D043F8042F5F
:10599000621C9742F5D1023455F82430B342C9D184
:1059A0000120F8BDDECAFAA1A0B1B1B1C2B110B4F4
:1059B00003460D4C43F8044B00F10C0C03C983E87B
:1059C000030092E803008CE80300012318465DF809
:1059D000044B70470346184670470B4618467047FD
:1059E00013461846704700BFDECAFAA108B5FFF794
:1059F0002FFF144B1B6803F4E063B3F5806F10D0E6
:105A0000114A0123C2F8083CD2F8083C002BFBD114
:105A10000E4BC2F8003CD2F8002C0D4B9A420CD031
:105A2000FEE70C4A012393609368002BFCD1074BDF
:105A300013601268064B9A4203D1FFF70BFF06482A
:105A400008BDFEE7002004E000400258C2A507F4AC
:105A5000CDB5E8B5003002409C07010800B583B021
:105A6000FFF7F6FE1D4B1B6803F4E063B3F5806F90
:105A700010D01B4A0123C2F8083CD2F8083C002B86
:105A8000FBD1184BC2F8003CD2F8002C164B9A42BE
:105A90000CD0FEE7154A012393609368002BFCD1DC
:105AA000104B13601268104B9A4215D1FFF7D2FECB
:105AB0000F4B1B680020DAB262F30700C3F3072222
:105AC00062F30F20C3F3074262F317401B0E63F328
:105AD0001F6003B05DF804FBFEE700BF002004E098
